:040000000201873240
:03000B0002018E61
:0300110002000EDC
:03000E0002014BA1
:20001400783376417837167837E630E713053AA93A7828E6F77828E62424F876FF1202BB3D
:200034007835167835E630E7130538A9387828E6F77828E62424F876FF1202BB783BE624CA
:2000540030F87933E7F67835067835C3748086F063F08095F0400BA938E7FF2424F876012D
:2000740015387836067836C3748086F063F08095F0400BA939E7FF2424F876011539783B6D
:20009400B60206783B76008003783B067833B65A0778337641020018783306020018438954
:2000B40020758DFA759850D28E7836167836E630E7130539A9397828E6F77828E62424F86E
:2000D40076FF1202BB7835167835E630E7130538A9387828E6F77828E62424F876FF12025E
:2000F400BB783CE62430F987997835067835C3748086F063F08095F0400BA938E7FF2424EB
:20011400F8760115387837067837C3748086F063F08095F0400BA93AE7FF2424F876011546
:200134003A783CB60206783C76008003783C0610990280FB0200BD783276007831760078FC
:2001540030760078347631783C7600783B760078357601783676007837760375385C753918
:1E0174006C753A7C9000141202449000B212024402030A020203222222220201C832A5
:200192007828B603067828760080037828067828E62424F98707C374808FF063F08095F0CC
:2001B20050DE7828E62420F98781D0D0D083D082D0F0D0E03222C0E0C0F0C082C083C0D0C6
:2001D200C2D4C2D37828E62420F8A6817828792AE6F778297928E6F77828E62420F98781EF
:2001F200D0D0D083D082D0F0D0E0782A7928E6F722782776007826760078257600782476A8
:200212000075890075A882D28C900192120244E5827829F690014B120244E5827828F678AF
:2002320028E62420F98781D0D0D083D082D0F0D0E022C2AF782C7600782CC3E664809484AE
:20025200500E782CE62424F9E76005782C0680E8782CB604047582FF22782CE62424F8764B
:2002720001782AA681782CE6C454F0FF243FF581E5828583F090030AC082C083C0E0C0F067
:200292007400C0E0C0E0C0E0C0E0782C792BE6C40354F8F7C02B782CE62420F8A681782AA6
:2002B2008681D2AF782C868222C2AFC0E0C0F0C082C083C0D0C2D4C2D37828E62420F8A66D
:2002D200817828B603067828760080037828067828E62424F98707C374808FF063F08095FA
:2002F200F050DE7828E62420F98781D0D0D083D082D0F0D0E0D2AF22C2AF7828E62424F874
:2003120076007828B603067828760080037828067828E62424F98707C374808FF063F08059
:1903320095F050DE7828E62420F98781D0D0D083D082D0F0D0E0D2AF22DC
:00000001FF
