:0300000002006C8F
:03000600020003F2
:0300030002004DAB
:20000900783376417830E6600312010878307933E7F67833B65A067833764180E7783306FD
:2000290080E2758920758DFA759850D28E7830E670031201087830869978307600109902D2
:2000490080FB80E9783276007831760078307600783476319000091200A190002B1200A149
:0A0069000201570200732222222236
:200073007827760078267600782576007824760090004D1200A1E5827828F67828E62420C8
:20009300F98781D0D0D083D082D0F0D0E022782C7600782CC3E664809484500E782CE62406
:2000B30024F9E76005782C0680E8782CB604047582FF22782CE62424F87601782AA68178B6
:2000D3002CE6C454F0FF243FF581C082C0837400C0E0C0E0C0E0C0E0782C792BE6C4035459
:2000F300F8F7C02B782CE62420F8A681782A8681782C868222C0E0C0F0C082C083C0D0C288
:20011300D4C2D37828E62420F8A6817828B603047F0080057828E604FF7828A6077828E6BD
:200133002424F98707C374808FF063F08095F050DA7828E62420F98781D0D0D083D082D045
:20015300F0D0E0227828E62424F876007828B603047F0080057828E604FF7828A6077828B7
:20017300E62424F98707C374808FF063F08095F050DA7828E62420F98781D0D0D083D082EF
:05019300D0F0D0E022D5
:00000001FF
