:04000000020079324F
:03000B0002008070
:0300110002000EDC
:03000E0002005A93
:20001400783376417830E670FBC2AF78307933E7F6D2AF7833B65A067833764180E678331A
:200034000680E1438920758DFA759850D28E7830E660FBC2AF7830869978307600D2AF10D0
:20005400990280FB80E8783276007831760078307600783476319000141201369000371298
:1000740001360201F00200F5222222220200BA32E5
:200084007828B603067828760080037828067828E62424F98707C374808FF063F08095F0DB
:2000A40050DE7828E62420F98781D0D0D083D082D0F0D0E03222C0E0C0F0C082C083C0D0D5
:2000C400C2D4C2D37828E62420F8A6817828792AE6F778297928E6F77828E62420F98781FE
:2000E400D0D0D083D082D0F0D0E0782A7928E6F722782776007826760078257600782476B7
:200104000075890075A882D28C900084120136E5827829F690005A120136E5827828F678DD
:2001240028E62420F98781D0D0D083D082D0F0D0E022C2AF782C7600782CC3E664809484BD
:20014400500E782CE62424F9E76005782C0680E8782CB604047582FF22782CE62424F8765A
:2001640001782AA681782CE6C454F0FF243FF581C082C0837400C0E0C0E0C0E0C0E0782C2A
:20018400792BE6C40354F8F7C02B782CE62420F8A681782A8681D2AF782C868222C2AFC0C6
:2001A400E0C0F0C082C083C0D0C2D4C2D37828E62420F8A6817828B603067828760080038A
:2001C4007828067828E62424F98707C374808FF063F08095F050DE7828E62420F98781D0C9
:2001E400D0D083D082D0F0D0E0D2AF22C2AF7828E62424F876007828B603067828760080D1
:20020400037828067828E62424F98707C374808FF063F08095F050DE7828E62420F9878155
:0D022400D0D0D083D082D0F0D0E0D2AF2275
:00000001FF
