:040000000202513275
:03000B0002025896
:0300110002000EDC
:03000E00020219D2
:2000140078337641C2AF7837167837E630E713053AA93A7828E6F77828E62424F876FF1289
:2000340003E9D2AFC2AF7835167835E630E7130538A9387828E6F77828E62424F876FF1266
:2000540003E9D2AF783BE62430F87933E7F6783BB60206783B76008003783B06C2AF7835BD
:20007400067835C3748086F063F08095F0400BA938E7FF2424F876011538D2AFC2AF78367E
:20009400067836C3748086F063F08095F0400BA939E7FF2424F876011539D2AF7833B65ABF
:2000B400077833764102001878330602001878347630C2AF7837167837E630E713053AA9AF
:2000D4003A7828E6F77828E62424F876FF1203E9D2AFC2AF7835167835E630E7130538A9C4
:2000F400387828E6F77828E62424F876FF1203E9D2AF783BE62430F87934E7F6783BB602A3
:2001140006783B76008003783B06C2AF7835067835C3748086F063F08095F0400BA938E7F7
:20013400FF2424F876011538D2AFC2AF7836067836C3748086F063F08095F0400BA939E7BB
:20015400FF2424F876011539D2AF7834B63907783476300200C67834060200C6438920756F
:200174008DFA759850D28EC2AF7836167836E630E7130539A9397828E6F77828E62424F8D1
:2001940076FF1203E9D2AFC2AF7835167835E630E7130538A9387828E6F77828E62424F805
:2001B40076FF1203E9D2AF783CE62430F98799783CB60206783C76008003783C06C2AF786E
:2001D40035067835C3748086F063F08095F0400BA938E7FF2424F876011538D2AFC2AF781E
:2001F40037067837C3748086F063F08095F0400BA93AE7FF2424F87601153AD2AF10990234
:2002140080FB02017B783276007831760078307600783C7600783B760078357601783676D9
:20023400007837760375385C75396C753A7C9000141203729000C212037202017002033187
:08025400222222220202BD3227
:20025C00782B7600782A7600782BE6703A782C7601782CC3E66480948450ED782CE62424AB
:20027C00F98707782AC3E664808FF063F08095F05010782CE62424F9782AE7F6782C792BE3
:20029C00E6F7782C0680CA782B7928E6F77828E62420F98781D0D0D083D082D0F0D0E0329E
:2002BC0022C0E0C0F0C082C083C0D0C2D4C2D37828E62420F8A681782C7601782CC3E664BB
:2002DC008094845037782CE62424F98707C374808FF063F08095F0501E782C792886F0E7EC
:2002FC00B5F00A782CE62424F87601800A782CE62424F9E7FF04F7782C0680BF7829792891
:20031C00E6F77828E62420F98781D0D0D083D082D0F0D0E022782776007826760078257606
:20033C00007824760075890075A882D28C90025C120372E5827829F6900219120372E58288
:20035C007828F67828E62420F98781D0D0D083D082D0F0D0E022C2AF782C7600782CC3E671
:20037C0064809484500E782CE62424F9E76005782C0680E8782CB604047582FF22782CE6DA
:20039C002424F87601782AA681782CE6C454F0FF243FF581E5828583F0900438C082C083A7
:2003BC00C0E0C0F07400C0E0C0E0C0E0C0E0782C792BE6C40354F8F7C02B782CE62420F8F4
:2003DC00A681782A8681D2AF782C868222C2AFC0E0C0F0C082C083C0D0C2D4C2D37828E65B
:2003FC002420F8A6817828B603067828760180037828067828E62424F98707C374808FF054
:20041C0063F08095F050DE7828E62420F98781D0D0D083D082D0F0D0E0D2AF22C2AF782806
:20043C00E62424F876007828B603067828760180037828067828E62424F98707C374808FCA
:1D045C00F063F08095F050DE7828E62420F98781D0D0D083D082D0F0D0E0D2AF22EA
:00000001FF
