:04000000020873324D
:03000B0002087A6E
:0300110002000EDC
:03000E00020839AC
:2000140012087EE5827830F6C2AF783A16783AE630E713053CA93C7828E6F77828E62424C3
:20003400F876FF120ABAD2AF784EE6700E784E76017830E6FF747F5FF6800C784F7601786A
:2000540030E6FF74804FF6C2AF783A06783AC3748086F063F08095F0400BA93CE7FF242480
:20007400F87601153CD2AFC2AF785B06785BC3748086F063F08095F0400BA96CE7FF2424FB
:20009400F87601156CD2AF75820112088312087EE5827831F6C2AF783A16783AE630E713AD
:2000B400053CA93C7828E6F77828E62424F876FF120ABAD2AF784EE6FF3395E0FE1FBFFFC9
:2000D400011EEF4E700D784EF67831E6FF747F5FF6800C784F76007831E6FF74804FF6C24F
:2000F400AF783A06783AC3748086F063F08095F0400BA93CE7FF2424F87601153CD2AFC2ED
:20011400AF785B06785BC3748086F063F08095F0400BA96CE7FF2424F87601156CD2AF22CA
:2001340012087EE5827832F6C2AF783A16783AE630E713053CA93C7828E6F77828E62424A0
:20015400F876FF120ABAD2AF784EE6700E784E76027832E6FF747F5FF6800C784F76027845
:2001740032E6FF74804FF6C2AF783A06783AC3748086F063F08095F0400BA93CE7FF24245D
:20019400F87601153CD2AFC2AF785B06785BC3748086F063F08095F0400BA96CE7FF2424DA
:2001B400F87601156CD2AF75820212088312087EE5827833F6C2AF783A16783AE630E71389
:2001D400053CA93C7828E6F77828E62424F876FF120ABAD2AF784EE6FF3395E0FEEF24FE74
:2001F400FFEE34FFFE4F700D784EF67833E6FF747F5FF6800C784F76007833E6FF74804FD1
:20021400F6C2AF783A06783AC3748086F063F08095F0400BA93CE7FF2424F87601153CD284
:20023400AFC2AF785B06785BC3748086F063F08095F0400BA96CE7FF2424F87601156CD209
:20025400AF2212087EE5827834F6C2AF783A16783AE630E713053CA93C7828E6F77828E6F4
:200274002424F876FF120ABAD2AF784EE6700E784E76037834E6FF747F5FF6800C784F7653
:20029400037834E6FF74804FF6C2AF783A06783AC3748086F063F08095F0400BA93CE7FF07
:2002B4002424F87601153CD2AFC2AF785B06785BC3748086F063F08095F0400BA96CE7FFB9
:2002D4002424F87601156CD2AF75820212088312087EE5827835F6C2AF783A16783AE63018
:2002F400E713053CA93C7828E6F77828E62424F876FF120ABAD2AF784EE6FF3395E0FEEF7B
:2003140024FDFFEE34FFFE4F700D784EF67835E6FF747F5FF6800C784F76007835E6FF7459
:20033400804FF6C2AF783A06783AC3748086F063F08095F0400BA93CE7FF2424F8760115A2
:200354003CD2AFC2AF785B06785BC3748086F063F08095F0400BA96CE7FF2424F876011518
:200374006CD2AF2212087EE5827836F6C2AF783A16783AE630E713053CA93C7828E6F778A1
:2003940028E62424F876FF120ABAD2AF784EE6700E784E76047836E6FF747F5FF6800C78E6
:2003B4004F76047836E6FF74804FF6C2AF783A06783AC3748086F063F08095F0400BA93C04
:2003D400E7FF2424F87601153CD2AFC2AF785B06785BC3748086F063F08095F0400BA96C98
:2003F400E7FF2424F87601156CD2AF75820212088312087EE5827837F6C2AF783A16783A25
:20041400E630E713053CA93C7828E6F77828E62424F876FF120ABAD2AF784EE6FF3395E030
:20043400FEEF24FCFFEE34FFFE4F700D784EF67837E6FF747F5FF6800C784F76007837E6BB
:20045400FF74804FF6C2AF783A06783AC3748086F063F08095F0400BA93CE7FF2424F87624
:2004740001153CD2AFC2AF785B06785BC3748086F063F08095F0400BA96CE7FF2424F876F7
:2004940001156CD2AF2212087EE5827838F6C2AF783A16783AE630E713053CA93C7828E6D7
:2004B400F77828E62424F876FF120ABAD2AF784EE6700E784E76057838E6FF747F5FF680D7
:2004D4000C784F76057838E6FF74804FF6C2AF783A06783AC3748086F063F08095F0400B41
:2004F400A93CE7FF2424F87601153CD2AFC2AF785B06785BC3748086F063F08095F0400BA7
:20051400A96CE7FF2424F87601156CD2AF75820212088312087EE5827839F6C2AF783A169E
:20053400783AE630E713053CA93C7828E6F77828E62424F876FF120ABAD2AF784EE6FF33D2
:2005540095E0FEEF24FBFFEE34FFFE4F700D784EF67839E6FF747F5FF6800C784F76007841
:2005740039E6FF74804FF6C2AF783A06783AC3748086F063F08095F0400BA93CE7FF242452
:20059400F87601153CD2AFC2AF785B06785BC3748086F063F08095F0400BA96CE7FF2424D6
:2005B400F87601156CD2AF22438920758DFA759850D28EC2AF785B16785BE630E713056C41
:2005D400A96C7828E6F77828E62424F876FF120ABAD2AFC2AF785B16785BE630E713056C35
:2005F400A96C7828E6F77828E62424F876FF120ABAD2AFC2AF785B16785BE630E713056C15
:20061400A96C7828E6F77828E62424F876FF120ABAD2AFC2AF785B16785BE630E713056CF4
:20063400A96C7828E6F77828E62424F876FF120ABAD2AFC2AF785B16785BE630E713056CD4
:20065400A96C7828E6F77828E62424F876FF120ABAD2AFC2AF785B16785BE630E713056CB4
:20067400A96C7828E6F77828E62424F876FF120ABAD2AFC2AF785B16785BE630E713056C94
:20069400A96C7828E6F77828E62424F876FF120ABAD2AFC2AF785B16785BE630E713056C74
:2006B400A96C7828E6F77828E62424F876FF120ABAD2AFC2AF785B16785BE630E713056C54
:2006D400A96C7828E6F77828E62424F876FF120ABAD2AFC2AF785B16785BE630E713056C34
:2006F400A96C7828E6F77828E62424F876FF120ABAD2AF78297600784C76017829C3E664C2
:2007140080948A400122784D7600784DC3E66480948A4003020833784DE62430F9784AE7F8
:20073400F6784A795C747F56F7785C794C86F0E7B5F002800302082D75996310990280FBEA
:2007540075996110990280FB75997210990280FB784DC2D575F002E630E704B2D5F4048483
:2007740030D502F4042431F59910990280FB75992010990280FB784DE6A2E75401600450CC
:200794000244FE601A75996F10990280FB75997510990280FB75997410990280FB8010758E
:2007B400996910990280FB75996E10990280FB75992010990280FB75997010990280FB75EE
:2007D400996C10990280FB75996F10990280FB75997410990280FB784AE6235401FF24311B
:2007F400F59910990280FB75992010990280FB75996110990280FB75997410990280FB7828
:200814004A747F56FF2430F59910990280FB75990A10990280FB782906784D0602071E78DB
:200834004C0602070F784F7600784E7600783A7601785B7600756C5C753C6C900014120A35
:2008540023900134120A23900256120A23900378120A2390049A120A239005BC020A2302FD
:0A08740009D82222222202092432B0
:20087E00783F868222AF827828E6242CF9C007C00112087EE582D001D0072FF77828E6247A
:20089E0024F876FE020ABAC2AF782B7600782A7600782C7601782CC3E664809484502C78EA
:2008BE002CE62424F98707782AC3E664808FF063F08095F05010782CE62424F9782AE7F689
:2008DE00782C792BE6F7782C0680CA782BE67004784B7601D2AF784BE670FBC2AF782BE61B
:2008FE00601F782B7928E6F7782B76007828E62420F98781D0D0D083D082D0F0D0E0D2AF20
:20091E0022D2AF0208A5C0E0C0F0C082C083C0D0C2D4C2D37828E62420F8A681784B7600B5
:20093E00783EB604047F008005783EE604FF783EA607783EE67003783F06782C7601782C94
:20095E00C3E664809484505A782CE62424F98707C374808FF063F08095F05020782C79288E
:20097E0086F0E7B5F00A782CE62424F87601802D782CE62424F9E7FF04F78021782CE62464
:20099E0024F98707BFFE16782CE6242CF98707783FE6B50708782CE62424F87609782C0606
:2009BE00809C782876007828E62420F98781D0D0D083D082D0F0D0E0322278277600782660
:2009DE0076007825760078247600783F7601783E760075890075A882D28C783B7604753D2A
:2009FE007C9008A5120A23900839120A23E5827828F67828E62420F98781D0D0D083D082C4
:200A1E00D0F0D0E022C2AF783B16783BE630E713053DA93D7828E6F77828E62424F876FF49
:200A3E00120ABAD2AFC2AF782C7600782CC3E664809484500E782CE62424F9E76005782C54
:200A5E000680E8782CB604047582FF22782CE62424F87601782AA681782CE6C454F0FF24D1
:200A7E003FF581E5828583F0900B09C082C083C0E0C0F07400C0E0C0E0C0E0C0E0782C79BA
:200A9E006BE6C40354F8F7C06B782CE62420F8A681782A8681D2AF782C868222C2AFC0E0BC
:200ABE00C0F0C082C083C0D0C2D4C2D37828E62420F8A6817828B6030678287600800378CF
:200ADE0028067828E62424F98707C374808FF063F08095F050DE7828E62420F98781D0D04E
:200AFE00D083D082D0F0D0E0D2AF22C2AF783B06783BC3748086F063F08095F0400BA93D8D
:200B1E00E7FF2424F87601153DD2AFC2AF7828E62424F87600C2D4C2D37828B60306782870
:200B3E00760080037828067828E62424F98707C374808FF063F08095F050DE7828E624201D
:100B5E00F98781D0D0D083D082D0F0D0E0D2AF222E
:00000001FF
