:0400000002020332C3
:03000B0002020AE4
:0300110002000EDC
:03000E000201DE0E
:2000140012020EE5827830F6C2AF783A16783AE630E713053CA93C7828E6F77828E6242439
:20003400F876FF12041FD2AF784EE67010784E760178308607747F5F7830F6800E784F7630
:20005400017830860774804F7830F6C2AF783A06783AC3748086F063F08095F0400BA93CE5
:20007400E7FF2424F87601153CD2AF75820112021312020EE5827831F6C2AF783A16783ACB
:20009400E630E713053CA93C7828E6F77828E62424F876FF12041FD2AF784E8607BF011085
:2000B400784E760078318607747F5F7831F6800E784F76007831860774804F7831F6C2AF75
:2000D400783A06783AC3748086F063F08095F0400BA93CE7FF2424F87601153CD2AF22124A
:2000F400020EE5827832F6C2AF783A16783AE630E713053CA93C7828E6F77828E62424F871
:2001140076FF12041FD2AF784EE67010784E760278328607747F5F7832F6800E784F760240
:200134007832860774804F7832F6C2AF783A06783AC3748086F063F08095F0400BA93CE71A
:20015400FF2424F87601153CD2AF75820212021312020EE5827833F6C2AF783A16783AE6E8
:2001740030E713053CA93C7828E6F77828E62424F876FF12041FD2AF784E8607BF02107811
:200194004E760078338607747F5F7833F6800E784F76007833860774804F7833F6C2AF788C
:2001B4003A06783AC3748086F063F08095F0400BA93CE7FF2424F87601153CD2AF22438927
:2001D40020758DFA759850D28E22784F7600784E7600783A7601753C6C7829760090001496
:1A01F4001203889000F31203889001D20203880203452222222202029632A6
:20020E00783F868222AF827828E6242CF9C007C00112020EE582D001D0072FF77828E62466
:20022E0024F876FE02041F782B7600782A7600782BE6703A782C7601782CC3E66480948433
:20024E0050ED782CE62424F98707782AC3E664808FF063F08095F05010782CE62424F97851
:20026E002AE7F6782C792BE6F7782C0680CA782B7928E6F77828E62420F98781D0D0D08371
:20028E00D082D0F0D0E03222C0E0C0F0C082C083C0D0C2D4C2D37828E62420F8A681783E0B
:2002AE00B604047F008005783EE604FF783EA607783EE67003783F06782C7601782CC3E638
:2002CE0064809484505A782CE62424F98707C374808FF063F08095F05020782C792886F058
:2002EE00E7B5F00A782CE62424F87601802D782CE62424F9E7FF04F78021782CE62424F954
:20030E008707BFFE16782CE6242CF98707783FE6B50708782CE62424F87609782C06809C9D
:20032E00782876007828E62420F98781D0D0D083D082D0F0D0E02278277600782676007856
:20034E002576007824760075890075A882D28C783B7604753D7C9002351203889001DE12A7
:20036E000388E5827828F67828E62420F98781D0D0D083D082D0F0D0E022C2AF783B167893
:20038E003BE630E713053DA93D7828E6F77828E62424F876FF12041FD2AFC2AF782C7600E3
:2003AE00782CC3E664809484500E782CE62424F9E76005782C0680E8782CB604047582FF07
:2003CE0022782CE62424F87601782AA681782CE6C454F0FF243FF581E5828583F090046E18
:2003EE00C082C083C0E0C0F07400C0E0C0E0C0E0C0E0782C792BE6C40354F8F7C02B782C5F
:20040E00E62420F8A681782A8681D2AF782C868222C2AFC0E0C0F0C082C083C0D0C2D4C25F
:20042E00D37828E62420F8A6817828B603067828760180037828067828E62424F98707C33B
:20044E0074808FF063F08095F050DE7828E62420F98781D0D0D083D082D0F0D0E0D2AF2272
:20046E00C2AF783B06783BC3748086F063F08095F0400BA93DE7FF2424F87601153DD2AF6B
:20048E00C2AF7828E62424F876007828B603067828760180037828067828E62424F98707AD
:2004AE00C374808FF063F08095F050DE7828E62420F98781D0D0D083D082D0F0D0E0D2AF71
:0104CE00220B
:00000001FF
